:020000040800F2
:100000000050002009630008516100085761000892
:1000100000000000000000000000000000000000E0
:100020000000000000000000000000005D6100080A
:100030000000000000000000676100087161000816
:1000400059630008596300085963000859630008A0
:100050007F6100085963000859630008896100083E
:100060005963000859630008596300085963000880
:100070005963000859630008596300085963000870
:100080005963000859630008596300080000000024
:100090005963000859630008596300085963000850
:1000A0005963000859630008596300085963000840
:1000B0005963000859630008596300085963000830
:1000C00010B5064C2378002B07D1054B002B02D02E
:1000D000044800E000BF0123237010BD7C00002015
:1000E00000000000408F0008044B10B5002B03D027
:1000F0000349044800E000BF10BDC04600000000F6
:1001000080000020408F00080023C25C0133002AD9
:10011000FBD1581E7047000003B4714649084000E7
:100120004900095E49008E4403BC70470022430821
:100130008B4274D303098B425FD3030A8B4244D3AF
:10014000030B8B4228D3030C8B420DD3FF220902F1
:1001500012BA030C8B4202D31212090265D0030BB0
:100160008B4219D300E0090AC30B8B4201D3CB03A6
:10017000C01A5241830B8B4201D38B03C01A5241E8
:10018000430B8B4201D34B03C01A5241030B8B42EA
:1001900001D30B03C01A5241C30A8B4201D3CB02D5
:1001A000C01A5241830A8B4201D38B02C01A5241BA
:1001B000430A8B4201D34B02C01A5241030A8B42BD
:1001C00001D30B02C01A5241CDD2C3098B4201D3D5
:1001D000CB01C01A524183098B4201D38B01C01A53
:1001E000524143098B4201D34B01C01A52410309CA
:1001F0008B4201D30B01C01A5241C3088B4201D379
:10020000CB00C01A524183088B4201D38B00C01A25
:10021000524143088B4201D34B00C01A5241411A4C
:1002200000D20146524110467047FFE701B5002059
:1002300000F006F802BDC0460029F7D076E7704707
:100240007047C046002B11D1002A0FD1002900D1E0
:10025000002802D00021C943081C07B4024802A1AB
:100260004018029003BDC046D9FFFFFF03B46846A3
:1002700001B5029800F02EF8019B9E4602B00CBC1E
:100280007047C046F0B515042D0C0F0001002E007C
:10029000C64684460004140C000C090C46434D432A
:1002A000604361434019340C241800B5A54203D9BA
:1002B0008020400280464144250C6D186146594318
:1002C0007A43300449192404000C2018891880BC92
:1002D000B846F0BDF0B557464E464546DE46E0B559
:1002E00004000D009246994683B08B4230D82DD041
:1002F0004946504600F0BAF829000600200000F0F8
:10030000B5F8331A9846203B9B4633D45A46534699
:10031000934042461F00534693401E00AF423AD8D6
:10032000AF4200D178E05B46A41BBD41002B00DA50
:1003300075E0002200230092019301235A46934066
:100340000193012342469340009328E08242CFD993
:1003500000220023009201930C9B002B01D01C6013
:100360005D600098019903B0F0BCBB46B246A94657
:10037000A046F0BD424620239B1A5246DA40414631
:1003800013004A468A40170042461F435346934093
:100390001E00AF42C4D900220023009201934346BD
:1003A000002BD9D0FB0772081A4346467B080EE0A3
:1003B000AB4201D1A2420CD8A41A9D4101202419BC
:1003C0006D410021013E24184D41002E06D0AB4264
:1003D000EED9013E24196D41002EF8D10098019903
:1003E0005B4600196941002B24DB2B005A4644462A
:1003F000D3402A00E2401C005B461500002B2ADB9C
:1004000026009E40330026004746BE403200801A38
:100410009941009001919FE7A342BCD883E74246EF
:10042000202300219B1A0022009101920122DA4030
:10043000019286E7424620239B1A2A0046469A40AC
:100440002300F340444613432A00E2401C005B466D
:100450001500002BD4DA42462F00202326009740B7
:100460009B1ADE403B003343CDE7C04610B5002960
:1004700003D100F007F8203002E0081C00F002F879
:1004800010BDC0461C2101231B04984201D3000C5F
:1004900010391B0A984201D3000A08391B099842F7
:1004A00001D30009043902A2105C40187047C0460D
:1004B000040302020101010100000000000000002D
:1004C00080B584B000AF02003960FB1D1A700E23A6
:1004D000FB18FA1D12781A703B6800221A700F235D
:1004E000FB1800221A7018E03B681B785AB20E23E2
:1004F000FB1819780F203B181B7819410B005BB2D1
:1005000001210B405BB253405BB2DAB23B681A7018
:100510003B181A783B1801321A700F23FB181B780E
:10052000082BE1D93B681B78012B02D90F235B42D2
:1005300001E03B681B781800BD4604B080BD80B563
:1005400084B000AF786039607B68BB603B68002294
:100550001A700023FB6010E03B681A78B968FB68EA
:10056000D9400B00DBB201210B40DBB25340DAB2C1
:100570003B681A70FB680133FB60FB681F2BEBDDE7
:100580003B681B78012B02D90F235B4201E03B68DB
:100590001B781800BD4604B080BD000080B584B053
:1005A00000AF0200FB1D1A70184B00221A720E23B6
:1005B000FB18FA1D12781A700F23FB1800221A700C
:1005C00019E00E23FB181A780F23FB181B781A4129
:1005D00013000122134001D0312100E030210F200F
:1005E0003B181B780722D31A084AD1543B181A78B3
:1005F0003B1801321A700F23FB181B78072BE0D928
:10060000024B1800BD4604B080BDC04698000020D3
:1006100080B584B000AF7860114B2022002199543E
:100620007B68BB600023FB6012E00122FB689A40FC
:1006300013001A00BB68134001D0312100E03021C3
:10064000FB681F22D31A064AD154FB680133FB60B2
:10065000FB681F2BE9D9024B1800BD4604B080BDD2
:10066000A400002080B588B000AFF860B9607A605F
:100670003B60FB68002B02D10A235B4292E0BB681F
:100680001B78002B06D0BB681B78012B02D00D23F2
:100690005B4287E07B681B78002B06D07B681B7869
:1006A000012B02D00E235B427CE01F217B1800222D
:1006B0001A703B681B789B10DB005BB2082213406A
:1006C0005AB27B181B785BB213435AB27B181A706C
:1006D0003B681B78DB101B015BB2102213405AB23F
:1006E0007B181B785BB213435AB27B181A70BB6835
:1006F0001B78002B01D0022300E000231F217A1871
:10070000127852B213435AB27B181A707B681B7866
:10071000002B01D0042300E000231F217A18127857
:1007200052B213435AB27B181A701E203B187A1823
:1007300012781A701723FA183B181B78110018004A
:10074000FFF7BEFE0300BB61BB69002B01DABB698A
:1007500028E01723FB181B78012B02D90F235B42DB
:1007600020E0BB695B015AB21F203B181B785BB2CB
:1007700013435AB23B181A703B183A1812780121E9
:100780000A431A703B183A1812781A703B183A1834
:100790001278802149420A431A70BB6A3A181278CB
:1007A0001A7001231800BD4608B080BD80B586B020
:1007B00000AF78607B68002B02D10A235B4225E002
:1007C00000237B617B681B68180000F0C1FE0300FA
:1007D0003B613B69002B02D10B235B4216E03B6976
:1007E000DB68002B04D03B695B7A5BB2002B0CDD2D
:1007F0007B68180000F0B2FB0300FB60FB68002B75
:1008000001DCFB6802E0FB687B617B691800BD4688
:1008100006B080BD80B586B000AF78607B68002BE5
:1008200002D10A235B4225E000237B617B681B68C1
:10083000180000F08DFE03003B613B69002B02D1E4
:100840000B235B4216E03B69DB68002B04D03B695D
:100850005B7A5BB2002B0CDA7B68180000F0A5FB1A
:100860000300FB60FB68002B01DAFB6802E0FB6819
:100870007B617B691800BD4606B080BD80B586B03F
:1008800000AF786008001100FB1C021C1A70BB1C32
:100890000A1C1A707B68002B02D10A235B4254E0C9
:1008A000BB1C1B78002B02D102235B424DE0FB1CDA
:1008B0001B78012B06D0FB1C1B78022B02D01823BF
:1008C0005B4242E000237B6100233B617B681800B0
:1008D000FFF76CFF0300FB60FB68002B01DAFB688D
:1008E00033E0FB687B61BB1C1A787B681100180041
:1008F00000F00AFB0300FB60FB68002B01DAFB68D9
:1009000023E07A69FB68D3187B61FB1C1B78012B01
:1009100001D17B6919E0FB1C1B78022B13D179688C
:10092000FB1C1A787B68180000F086FF0300FB6050
:10093000FB68002B01DAFB6807E0FB683B617A6922
:100940003B69D31801E018235B421800BD4606B08E
:1009500080BD90B58BB002AFF8607A603B600B232E
:10096000FB180A1C1A70FB68002B02D10A235B4299
:100970007FE07B681B78002B06D07B681B78012BFF
:1009800002D00D235B4274E03B681B78002B06D03D
:100990003B681B78012B02D00E235B4269E03B6B66
:1009A0001B780C2B02D90C235B4262E00B22BB1894
:1009B0001B78012B06D0BB181B78022B02D0182302
:1009C0005B4256E00023FB610023BB613C6B3A684D
:1009D0007968F8681323FB1800932300FFF742FEA1
:1009E00003007B617B69002B01DA7B6941E0FB68D6
:1009F0001800FFF7DBFE03007B617B69002B01DA47
:100A00007B6936E07B69FB611323FB181A78FB686E
:100A10001100180000F078FA03007B617B69002B5D
:100A200001DA7B6925E0FA697B69D318FB610B2346
:100A3000FB181B78012B01D1FB691AE00B22BB18B4
:100A40001B78022B13D1F968BB181A78FB681800C1
:100A500000F0F2FE03007B617B69002B01DA7B6909
:100A600007E07B69BB61FA69BB69D31801E0182311
:100A70005B421800BD4609B090BD80B58AB000AF9A
:100A8000F8607A600B23FB180A1C1A70FB68002BB5
:100A900002D10A235B42A3E07B68002B02D1022330
:100AA0005B429DE00B22BB181B78012B06D0BB18C4
:100AB0001B78022B02D018235B4291E000233B629B
:100AC0000023FB61FB681B68180000F041FD030078
:100AD000BB61BB69002B02D10B235B4280E0BB6989
:100AE000DB68002B02D117235B4279E0BB69DB682E
:100AF0005B7A5BB2063319D0BB695B7A5BB2052BBC
:100B000014D0BB695B7A5BB2063302D017235B4219
:100B100066E0FB681800FFF77DFE03007B617B69E0
:100B2000002B01DA7B695BE07B693B627A68FB68DA
:100B30001100180000F0B2FB03007B617B69002B01
:100B400001DA7B694CE07B693B620B23FB181B7865
:100B5000012B01D13B6A43E00B22BB181B78022B0F
:100B600015D1F968BB181A78FB68180000F064FE0C
:100B700003007B617B69002B01DA7B6930E0FA6955
:100B80007B69D318FB61FB681B687B620CE0182350
:100B90005B4225E07B6ADB68002B02D115235B42B8
:100BA0001EE07B6ADB687B627B6A5B7A5BB2022B4E
:100BB000F0D17B6A5B7A5BB2022B0FD17B6A9B7AA6
:100BC000002B0BD07B6A5B687A689A4202D01623AE
:100BD0005B4205E03A6AFB69D31801E014235B42EB
:100BE0001800BD460AB080BD80B588B000AFF8607F
:100BF00008007A6019000B23FB18021C1A700A23E4
:100C0000FB180A1C1A70FB68002B02D10A235B42F6
:100C10004FE00B22BB181B78012B06D0BB181B78AA
:100C2000022B02D018235B4243E00023FB61002328
:100C3000BB61FB681800FFF7B9FD03007B617B69AE
:100C4000002B01DA7B6934E07B69FB610A23FB1826
:100C50001A787968FB68180000F0EDFA03007B61F0
:100C60007B69002B01DA7B6923E07B69FB610B2345
:100C7000FB181B78012B01D1FB691AE00B22BB1872
:100C80001B78022B13D1F968BB181A78FB6818007F
:100C900000F0D2FD03007B617B69002B01DA7B69E8
:100CA00007E07B69BB61FA69BB69D31801E01823CF
:100CB0005B421800BD4608B080BD80B588B000AF6B
:100CC000F8607A600B23FB180A1C1A70FB68002B73
:100CD00002D10A235B424DE00B22BB181B78012B8B
:100CE00006D0BB181B78022B02D018235B4241E0D0
:100CF0000023FB610023BB61FB681800FFF756FD72
:100D000003007B617B69002B01DA7B6932E07B6940
:100D1000FB617A68FB681100180000F04CFA0300D0
:100D20007B617B69002B01DA7B6923E07B69FB61D6
:100D30000B23FB181B78012B01D1FB691AE00B2256
:100D4000BB181B78022B13D1F968BB181A78FB6803
:100D5000180000F071FD03007B617B69002B01DA54
:100D60007B6907E07B69BB61FA69BB69D31801E065
:100D700018235B421800BD4608B080BD80B588B01E
:100D800000AFF8607A603B600B23FB180A1C1A70F6
:100D9000FB68002B02D10A235B4295E00B22BB18B3
:100DA0001B78012B06D0BB181B78022B02D018230E
:100DB0005B4289E00023BB6100237B61FB68180074
:100DC000FFF728FD03003B613B69002B01DA3B691B
:100DD0007AE03B69BB613A687968FB68180000F00B
:100DE0008EF903003B613B69002B01DA3B696BE044
:100DF0003B69BB610B23FB181B78012B01D1BB693D
:100E000062E00B22BB181B78022B15D1F968BB18C6
:100E10001A78FB68180000F00FFD03003B613B6986
:100E2000012B01DC3B694FE07A693B69D3187B6198
:100E3000FB681B68FB610CE018235B4244E0FB6924
:100E4000DB68002B02D119235B423DE0FB69DB68C4
:100E5000FB61FB695B7A5BB2062BF0D1FB691B6916
:100E60005B7A5BB2042B02D01B235B422CE0FB6954
:100E70005B7A5BB2062B26D1FB699B7A002B22D0D2
:100E8000FB691B695B7A5BB2042B19D1FB691B6997
:100E90009B7A002B14D0FB695B687A689A4202D077
:100EA0001A235B4210E0FB691B695B683A689A424F
:100EB00002D01C235B4207E0BA697B69D31803E0C8
:100EC0001D235B4200E000231800BD4608B080BD32
:100ED00080B584B000AF786039607B68002B02D0A9
:100EE0003B68002B02D102235B4209E07B681B6850
:100EF0003A681100180000F0DBFB0300FB60FB68A0
:100F00001800BD4604B080BD90B589B000AF7860D0
:100F10000A00FB1C1A707B68002B02D10A235B427B
:100F200018E00C243B1914220021180006F0DDFF04
:100F300021007B18FA1C12781A707B1808221A728A
:100F40007B18FA225A727A187B6811001800FFF792
:100F5000BFFF03001800BD4609B090BD90B589B031
:100F600000AF78607B68002B02D10A235B4218E057
:100F70000C243B1914220021180006F0B6FF2100B2
:100F80007B1800221A707B685A797B181A727B18BA
:100F9000FB225A727A187B6811001800FFF798FF3D
:100FA00003001800BD4609B090BD90B589B000AFF0
:100FB00078607B68002B02D10A235B4218E00C2486
:100FC0003B1914220021180006F08FFF21007B1826
:100FD00001221A707B685A797B181A727B180522D5
:100FE0005A727A187B6811001800FFF771FF03002E
:100FF0001800BD4609B090BD90B589B000AF7860CB
:101000000A00FB1C1A707B68002B02D10A235B428A
:1010100023E0FB1C1B78002B06D0FB1C1B78012B4C
:1010200002D005235B4218E00C243B191422002156
:10103000180006F05AFF21007B18FA1C12781A706B
:101040007B1801221A727B18FC225A727A187B686C
:1010500011001800FFF73CFF03001800BD4609B05F
:1010600090BD90B589B000AF786039607B68002B87
:1010700002D10A235B4217E00C243B191422002101
:10108000180006F032FF21007B183A685A607B187E
:1010900001221A727B1804225A727A187B68110096
:1010A0001800FFF715FF03001800BD4609B090BDFA
:1010B00090B589B000AF786039607B68002B02D1B1
:1010C0000A235B4217E00C243B191422002118006C
:1010D00006F00BFF21007B183A685A607B1820222B
:1010E0001A727B1806225A727A187B68110018004F
:1010F000FFF7EEFE03001800BD4609B090BD80B5B5
:1011000086B000AFF860B9607A60FB68002B02D14E
:101110000A235B4224E000237B61BA68FB6811006C
:101120001800FFF7C5FF03003B613B69002B01DCA2
:101130003B6915E07A693B69D3187B617A68FB6883
:1011400011001800FFF78DFF03003B613B69002B86
:1011500001DC3B6904E07A693B69D3187B617B69F8
:101160001800BD4606B080BD90B589B000AF78606C
:1011700039607B68002B02D10A235B4217E00C2404
:101180003B1914220021180006F0AFFE21007B1845
:101190003A681A607B1820221A727B18F9225A7258
:1011A0007A187B6811001800FFF792FE0300180000
:1011B000BD4609B090BD80B586B000AF786039609B
:1011C0007B68002B02D10A235B4230E000237B6165
:1011D0003A687B6811001800FFF7C6FF03003B6107
:1011E0003B69002B01DC3B6921E03B697B610F23FC
:1011F000FA183B6811001800FFF7A1F903003B61E2
:101200003B69002B01DA3B6911E00F23FB181A78C8
:101210007B6811001800FFF7EFFE03003B613B699C
:10122000002B01DC3B6902E03B697B617B691800B4
:10123000BD4606B080BD80B586B000AFF860B9602D
:10124000FB1D1A70FB68002B02D10A235B4221E0D0
:1012500000237B61BA68FB6811001800FFF784FF68
:1012600003003B613B69002B01DC3B6912E03B69F9
:101270007B61FB1D1A78FB6811001800FFF7BCFEAC
:1012800003003B613B69002B01DC3B6902E03B69E9
:101290007B617B691800BD4606B080BD90B589B002
:1012A00000AF786039607B68002B02D10A235B4273
:1012B00017E00C243B1914220021180006F015FE3B
:1012C00021007B183A685A607B1803221A727B1837
:1012D00002225A727A187B6811001800FFF7F8FD95
:1012E00003001800BD4609B090BD90B58FB000AFA7
:1012F000F860B9607A60FB68002B02D10A235B4278
:1013000050E0BB68002B02D102235B424AE07B68BD
:10131000002B02DC05235B4244E000233B63FB68B7
:101320001B68BB620023FB6222E010243B191422DD
:101330000021180006F0D9FDFB6ABA68D3181A78A4
:101340003B191A703B19FE225A723B1908221A7275
:101350003A19FB6811001800FFF7BAFD03007B6320
:101360007B6B002B09DD7B6B3B63FB6A0133FB620C
:10137000FA6A7B689A42D8DB00E0C0467B6B002BA0
:101380000FDCBB6A180000F01EFA03007B627B6A68
:10139000002B01DA7B6A05E0FB68BA6A1A607B6B96
:1013A00000E03B6B1800BD460FB090BD80B582B029
:1013B00000AF786005497B6809221800FFF795FFA8
:1013C00003001800BD4602B080BDC046ECBD000859
:1013D00080B582B000AF786005497B680A221800AA
:1013E000FFF783FF03001800BD4602B080BDC04672
:1013F000F8BD000880B582B000AF78607B68002B34
:1014000001D1002327E07B685B7A5BB207330D2BA9
:1014100020D89A00124BD3181B689F46114B1AE034
:10142000114B18E0114B16E0114B14E0114B12E078
:10143000114B10E0114B0EE0114B0CE0114B0AE088
:10144000114B08E0114B06E0114B04E0114B02E098
:10145000114B00E0114B1800BD4602B080BDC046E4
:1014600004BE0008588F0008648F0008748F0008BD
:10147000808F00088C8F00089C8F0008AC8F0008BC
:10148000B48F0008C08F0008C88F0008D48F0008F0
:10149000E48F0008F08F0008FC8F00080890000817
:1014A00080B582B000AF786039600B4B7A681A6003
:1014B0000A4B3A681A60084B18683A6813009B0098
:1014C0009B189B001A00002106F00FFD0023180056
:1014D000BD4602B080BDC046C8000020000000200C
:1014E00080B582B000AF786039600B4B7A681A60C3
:1014F0000A4B3A681A60084B18683A6813009B0058
:101500009B189B001A00002106F0EFFC0023180036
:10151000BD4602B080BDC046CC00002004000020C3
:1015200080B584B000AF78607B68002B01D10023C8
:101530000AE07B68FB6002E0FB68DB68FB60FB683D
:10154000DB68002BF8D1FB681800BD4604B080BDF5
:1015500080B584B000AF78607B68002B01D1002398
:101560000AE07B68FB6002E0FB681B69FB60FB68CC
:101570001B69002BF8D1FB681800BD4604B080BD84
:1015800080B584B000AF78607B68002B01D1002368
:1015900029E07B681800FFF7C3FF0300FB60FB68CE
:1015A000002B01D100231EE07B681800FFF7B8FF75
:1015B0000300FB6013E0FB689B7A002B0CD0FB68F8
:1015C0001B69002B06D0FB681B699B7A002B03D19B
:1015D000FB6808E0FB6806E0FB681B69FB60FB68D2
:1015E000002BE8D100231800BD4604B080BD0000E8
:1015F00080B582B000AF7860294B1B687A689A4248
:1016000021D3274B1A68274B1B6819000B009B003E
:101610005B189B00D3187A689A4214D27B68143303
:101620007B601F4B1A681F4B1B6819000B009B0047
:101630005B189B00D3187A689A4202D3184B1B6838
:101640007B607B6827E0184B1B687A689A4221D33D
:10165000154B1A68154B1B6819000B009B005B1893
:101660009B00D3187A689A4214D27B6814337B604B
:101670000D4B1A680D4B1B6819000B009B005B1883
:101680009B00D3187A689A4202D3074B1B687B6091
:101690007B6800E000231800BD4602B080BDC04654
:1016A000C800002000000020CC0000200400002022
:1016B00080B586B000AF786039607B68002B02D1BE
:1016C00003235B4241E03B68002B02D102235B42D3
:1016D0003BE07B681B69002B05D07B681800FFF797
:1016E00037FF030000E07B687B617B691800FFF730
:1016F0007FFF03003B613B69002B02D10B235B4260
:1017000023E03B691B69002B06D03B699B7A002BC9
:1017100002D131235B4218E039683B69142218007A
:1017200006F0DAFB7B693A691A613B697A69DA602B
:101730003B6900221A613B691800FFF759FF03005B
:10174000FB60FB680022DA6001231800BD4606B08A
:1017500080BD000080B500AF054B00221A60054B2C
:10176000012252421A6001231800BD4680BDC046C6
:10177000C80000200000002080B500AF054B00220B
:101780001A60054B012252421A6001231800BD461F
:1017900080BDC046C80000200000002080B582B097
:1017A00000AFFFF7D7FF03007B607B68002B01DAF7
:1017B0007B6804E0FFF7E0FF03007B607B681800B4
:1017C000BD4602B080BD80B584B000AF78607B6854
:1017D000002B02D103235B422AE00023FB607B68DD
:1017E0001B69002B01D1002322E07B681B691800D4
:1017F000FFF7AEFE0300BB60BB68002B10D10B23CC
:101800005B4215E0BB68DB68BB60BB681B690022FC
:101810001A61BB681B690022DA60FB680133FB6058
:10182000BA687B689A42EDD17B6800221A61FB6836
:101830001800BD4604B080BD80B58AB000AFF86026
:10184000B960FB1D1A70FB68002B02D10A235B42B2
:101850007CE0BB681B68002B02D0BB68002B02D168
:1018600003235B4272E0FB1D1B78002B03D0FB1DA2
:101870001B78072B02D918235B4267E000237B62A9
:10188000FB1D1B78022B12D1BB681B681800FFF7E9
:1018900047FE0300FB61BB681B681800FFF758FE9A
:1018A0000300BB61C046FB69002B06D102E0182390
:1018B0005B424BE01E235B4248E0BB69002B02D138
:1018C0001F235B4242E0FA69BB699A4215D1FB696A
:1018D0009B7A002B0FD1FA69FB681100180001F008
:1018E00005FD03007B617B69002B01DA7B692DE03C
:1018F000BB68FA691A60012328E0FB693B623B6A16
:101900009B7A002B04D03B6A1B69002B17D012E096
:101910003A6AFB681100180001F0E8FC03007B61E3
:101920007B69002B01DA7B6910E07B697B623A6A94
:10193000BB699A4205D03B6A1B693B62DFE7C04640
:1019400000E0C046BB683A6A1A607B6A1800BD4670
:101950000AB080BD80B582B000AFE421012006F05E
:1019600095F803007B607B68002B01D1002329E000
:10197000164B1E211800FFF793FD03003B603B68E8
:10198000002B05DA7B68180000F024F8002319E02A
:101990007B680E4A1A607B6801221A717B680122FB
:1019A0005A717B688022D2009A607B6802221A7387
:1019B0007B6800225A73064A7B680121180002F0F6
:1019C00015FD7B681800BD4602B080BD48010020AF
:1019D0002090000880B582B000AF78607B68002B53
:1019E00002D102235B4204E07B68180006F06AFA29
:1019F00000231800BD4602B080BD80B584B000AFA2
:101A000078607B68002B02D102235B4209E0FFF77C
:101A1000C5FE0300FB60FB68002B01DAFB6800E0F9
:101A2000FB681800BD4604B080BD80B584B000AF2F
:101A300078600023FB607B681800FFF7DEFF03007F
:101A4000BB60BB68002B01DABB680FE0BB68FB60C2
:101A50007B681800FFF7BEFF0300BB60BB68002B6C
:101A600001DABB6802E0FA68BB68D3181800BD460B
:101A700004B080BD90B58BB002AFF8607A600B20E7
:101A80003B180A1C1A703B181B78180002F0F2FC75
:101A90000400F968324AF8687B68019300940B00EF
:101AA000052102F0A3FCFB68002B02D10A235B4254
:101AB00052E07B68002B02D102235B424CE0002302
:101AC000FB6101235B427B6100233B613B69012297
:101AD00013433B613B698022D20513433B613B6961
:101AE0008022520513433B61FB6800221A767A6814
:101AF0000B23FB181978FB68180000F0B9FB0300F2
:101B0000BB61BB69002B01DABB6925E01023FC181F
:101B10001423FA180B23FB181978F868230000F037
:101B200021F80300BB61BB69002B01DABB6913E03C
:101B3000FA690B23FB181978F8681300082200F0E3
:101B400063FD0300BB61BB69002B01DABB6903E0E5
:101B5000FB6801221A7600231800BD4609B090BD2B
:101B600090900008F0B58DB006AFF8607A603B60E9
:101B70000B203B180A1C1A703B181B78180002F047
:101B800079FC06007B68002B02D07B681A6800E0B5
:101B900000223B68002B02D03B681B6800E000235A
:101BA000FD684A4CF8683968049103937B68029396
:101BB000019200962B002200052102F017FCFB6821
:101BC000002B02D10A235B427BE07B68002B0ED006
:101BD0007B681A680B23FB181978F8681300002239
:101BE00000F012FD03003B613B69002B58DB3B68B2
:101BF000002B4DD03B681B68A022D2051A433B68DE
:101C00001A603B681A680B23FB181978F8681300F0
:101C1000042200F0F9FC03003B613B69002B41DB2F
:101C20000A237B6116E03A680B23FB181978F868E1
:101C30001300042200F056FB03003B613B69002BBC
:101C400032DB3B681A68A0231B06134006D17B6970
:101C5000013B7B617B69002BE5D100E0C0463B681E
:101C60001A68FB685A62FB685B6A194AF8680421C3
:101C700002F0BCFB7B69002B0AD1FB685B6A154A4A
:101C8000F868032102F0B2FB2B235B423B610CE0BE
:101C9000FB68114AF868052102F0A8FB002310E058
:101CA000C04602E0C04600E0C0463B695BB2180097
:101CB00001F044FE0300094AF868022102F096FB95
:101CC0003B691800BD4607B0F0BDC046EC90000867
:101CD0006091000894910008E8910008249200089F
:101CE00080B588B002AF78600A00FB1C1A70FB1C3C
:101CF0001B78180002F0BEFB01007B682F4A786851
:101D00000091052102F072FB7B68002B02D10A23AF
:101D10005B424EE0FB1C1B78012B06D0FB1C1B78A2
:101D2000022B02D018235B4243E000237B61002397
:101D30003B617B683D22002199547B681800FEF7C7
:101D400035FD0300FB60FB68002B01DAFB6830E027
:101D50007B681800FFF72AFB0300FB60FB68002B81
:101D600001DCFB6825E07A69FB68D3187B61FB1C0A
:101D70001B78012B01D17B691BE0FB1C1B78022B1C
:101D800015D17968FB1C1A787B681800FFF754FDA1
:101D90000300FB60FB68002B01DAFB6809E03A698D
:101DA000FB68D3183B617A693B69D31801E01823BB
:101DB0005B421800BD4606B080BDC0466092000878
:101DC00080B588B002AF78600A00FB1C1A70FB1C5B
:101DD0001B78180002F04EFB01007B682B4A7868E4
:101DE0000091052102F002FB7B68002B02D10A233F
:101DF0005B4246E0FB1C1B78012B06D0FB1C1B78CA
:101E0000022B02D018235B423BE000237B610023BE
:101E10003B617B681800FEF7C9FC0300FB60FB68B0
:101E2000002B01DAFB682CE07B681800FFF7D0FA82
:101E30000300FB60FB68002B01DAFB6821E0FB6814
:101E40007B61FB1C1B78012B01D17B6919E0FB1C1A
:101E50001B78022B13D17968FB1C1A787B68180059
:101E6000FFF7EAFC0300FB60FB68002B01DAFB686C
:101E700007E0FB683B617A693B69D31801E01823EE
:101E80005B421800BD4606B080BDC046A492000863
:101E9000F0B58FB006AFF8607A603B600B203B185E
:101EA0000A1C1A703B181B78180002F0E3FA0600AF
:101EB0007B68002B02D07B681A6800E000223B6838
:101EC000002B02D03B681B6800E00023FD686F4CCC
:101ED000F86839680491039302927B680193009635
:101EE0002B002200052102F081FAFB68002B02D1B1
:101EF0000A235B42C5E00B22BB181B78022B06D0DD
:101F0000BB181B78012B02D018235B42B9E01B23BE
:101F1000FB1800221A701A23FB1801221A701923C9
:101F2000FB1800221A701823FB1804221A701723BA
:101F3000FB1800221A707B68002B42D00B23FB1881
:101F40001B78012B02D133235B429AE07B681B682C
:101F50001E221A407B681A601923FC181B23FA18EA
:101F60000B23FB181978F8681723FB18009323003C
:101F7000FEF7EFFC0300FB61FB69002B01DAFB6954
:101F80007FE01623FA180B23FB181978FB6818005A
:101F9000FEF773FD0300FB61FB69002B01DAFB69AF
:101FA0006FE07B681A680B23FB181978FB68180030
:101FB000FEF783FE0300FB61FB69002B01DAFB697E
:101FC0005FE03B68002B5BD00B23FB181B78012BD9
:101FD00002D133235B4254E01A23FC181B23FA1866
:101FE0000B23FB181978F8681823FB1800932300BB
:101FF000FEF7AFFC0300FB61FB69002B01DAFB6914
:102000003FE01623FA180B23FB181978FB68180019
:10201000FEF733FD0300FB61FB69002B01DAFB696E
:102020002FE01523FC183A680B23FB181978F86881
:102030002300FEF7A3FE0300FB61FB69002B01DA1E
:10204000FB691EE03B681B681422BA1811001800D7
:10205000FEF775FA0300FB61FB69002B01DAFB69EF
:102060000FE01523FB181A781423FB181B789A42EB
:1020700002D00F235B4204E03B681A68FB685A6297
:1020800000231800BD4609B0F0BDC046EC92000820
:10209000B0B58CB004AFF8607A600B203B180A1C16
:1020A0001A703B181B78180002F0E4F90100FB6875
:1020B0006D4AF8680091052102F098F9FB68002B41
:1020C00002D10A235B42CBE00B22BB181B78012B09
:1020D00006D0BB181B78022B02D018235B42BFE04E
:1020E0000023FB6117203B1800221A7016217B1871
:1020F00001221A7015243B1900221A7079183A1817
:10210000F8683B1900930B000121FEF722FC030045
:10211000BB61BB69002B01DCBB69A1E0BB69FB6152
:102120000B217B181B78012B29D1FB68C5331A00C2
:102130007B181978FB681800FEF79FFC0300BB6151
:10214000BB69002B01DCBB698AE0BB69FB61FB68F2
:10215000C8331A00FB68D1331C000B23FB18197815
:10216000F8682300FEF70AFE0300BB61BB69002B81
:1021700001DCBB6974E0BB69FB61FB6970E00B21AA
:102180007B181B78022B69D11323FA187B18197856
:10219000FB681800FEF771FC0300BB61BB69002BF4
:1021A00001DCBB695CE0FA69BB69D318FB611223EF
:1021B000FC187A680B23FB181978F8682300FEF7DF
:1021C000DDFD0300BB61BB69002B01DABB6947E0A1
:1021D000FA69BB69D318FB617B681A68FB68DA612E
:1021E0001223FB181A78FB689A761323FB181A78C7
:1021F000FB685A767B681B681422BA181100180015
:10220000FEF79DF90300BB61BB69002B01DABB69D6
:1022100026E01423FB181A781223FB181B789A4225
:1022200002D00F235B421BE00B23FB181B78180026
:1022300002F020F905007B681C687B681B681800A9
:10224000FEF7E6F90100FB68084AF868029101947C
:102250000095042102F0CAF8FB6901E018235B42F3
:102260001800BD4608B0B0BD5C930008B0930008EC
:1022700080B586B000AFF8607A600B203B180A1C6E
:102280001A703B181A78FB6811001800FFF798FDC8
:1022900003007B617B69002B01DC7B691EE00B2363
:1022A000FB181A78FB6811001800FFF719FD0300EE
:1022B0007B617B69002B01DC7B690FE07A680B2373
:1022C000FB181978FB681800FFF7E2FE03007B613A
:1022D0007B69002B01DA7B6900E000231800BD4612
:1022E00006B080BDF0B5C64600B592B006AFF86046
:1022F000080011007B600B243B19021C1A700A2590
:102300007B190A1C1A703B191B78180002F0B2F8EE
:1023100004007B191B781D007B681B68F968B74AAD
:10232000F8680293019500940B00052102F05EF815
:10233000FB68002B02D10A235B4259E17B68002B2A
:1023400002D102235B4253E10B22BB181B78012B05
:1023500006D0BB181B78022B02D018235B4247E142
:102360000023BB6223217B1800221A7022203B1815
:1023700001221A700A23FC183A187918F8681E23EB
:10238000FB1800932300FEF76DF90300FB62FB6A64
:10239000002B01DAFB6A2BE11E23FB181A78FB687D
:1023A00001211800FEF76AFA0300FB62FB6A002BAA
:1023B00001DCFB6A1CE1FB6ABB620B23FB181B7888
:1023C000012B02D133235B4212E10B257B191B78D1
:1023D000022B00D00AE12023FA187B191978FB6838
:1023E0001800FEF74AFB0300FB62FB6A002B2CDBA4
:1023F0001F23FC187A687B191978F8682300FEF708
:10240000BDFC0300FB62FB6A002B01DAFB6AEFE014
:102410007B681B682122BA1811001800FEF78FF89C
:102420000300FB62FB6A002B01DAFB6AE0E0212378
:10243000FB181A781F23FB181B789A4202D00F232F
:102440005B42D5E0FB6ABB625BE0FB6A243358D198
:102450000A237B624AE002235B427B611823FB185C
:102460001422BA18F8680221FFF712FD0300FB627C
:10247000FB6A002B30DB1E23FB181A78FB68012156
:102480001800FEF7FBF90300FB62FB6A002B25DB5B
:102490002023FA18FB6802211800FEF7EEFA030069
:1024A000FB62FB6A002B1BDB1F23FB187A68F868B2
:1024B0000221FEF763FC0300FB62FB6A002B11DBC9
:1024C0007B68F8680C220221FFF70CFF0300FB6217
:1024D000FB6A002B0EDA06E0C04604E0C04602E0CC
:1024E000C04600E0C0467B6A013B7B627B6A002BF2
:1024F000B1DC00E0C0467B6A002B02D12B235B429B
:1025000076E0FB6A002B26DA0B23FB181B781800F9
:1025100001F0B0FF05000A23FB181B7898467B6882
:102520001C687B681B681800FEF772F80600FB6ADF
:102530005BB2180001F002FA0100FB68304AF8684B
:10254000049103960294414601910095022101F005
:102550004DFFFB6A4CE00B23FB181B78180001F0C1
:1025600089FF05000A23FB181B781E007B681C6886
:102570007B681B681800FEF74BF80100FB68214AD6
:10258000F8680391029401960095052101F02EFF51
:102590000A23FB181B780C2B0DD025DC082B0FD041
:1025A00022DC002B02D0042B0FD01DE07B681A68C0
:1025B000FB68DA6118E07B681A68FB685A6313E00D
:1025C0007B681A68FB681A630EE0FB68DB6A01220D
:1025D000134004D07B681A68FB689A6203E07B684A
:1025E0001A68FB685A62C046BB6A01E018235B4266
:1025F0001800BD460CB080BCB846F0BD0094000881
:1026000064940008C4940008F0B591B006AFF86077
:10261000080011007B600B243B19021C1A700A256C
:102620007B190A1C1A703B191B78180001F022FF55
:1026300004007B191B781D00F968AC4AF8687B68B8
:102640000293019500940B00052101F0CFFEFB6879
:10265000002B02D10A235B4243E10B22BB181B78FB
:10266000012B06D0BB181B78022B02D018235B422B
:1026700037E10023FB611B217B1800221A701A200E
:102680003B1800221A700A23FC183A187918F868C7
:102690001823FB1800932300FDF7E4FF03007B627F
:1026A0007B6A002B01DA7B6A1BE11823FB181A787E
:1026B000FB6801211800FEF7E1F803007B627B6AEA
:1026C000002B01DC7B6A0CE17B6AFB61FB68E13378
:1026D0001A007B6811001800FDF731FF0B217B18F1
:1026E0001B78012B24D1FB68D5331A007B1819788D
:1026F000FB681800FEF7C1F903007B627B6A002BC0
:1027000001DC7B6AEDE07B6AFB617A680B23FB18D6
:102710001978FB681800FEF7D0FA03007B627B6A29
:10272000002B01DC7B6ADCE07B6AFB61FB69D8E0A3
:102730000B243B191B78022B00D0D0E01923FA1888
:102740003B191978FB681800FEF797F903007B62C4
:102750007B6A002B09DB7A683B191978FB68180043
:10276000FEF7ABFA03007B624DE07B6A24334AD16B
:102770000A233B623CE001235B423B611423FB18CC
:102780001022BA18F8680221FFF782FB03007B626F
:102790007B6A002B24DB1823FB181A78FB680121C5
:1027A0001800FEF76BF803007B627B6A002B19DBD5
:1027B0001923FA18FB6802211800FEF75EF90300DE
:1027C0007B627B6A002B0FDB7A68FB6802211800B2
:1027D000FEF773FA03007B627B6A002B0CDA04E0DD
:1027E000C04602E0C04600E0C0463B6A013B3B6297
:1027F0003B6A002BBFDC00E0C0463B6A002B02D1E5
:102800002B235B426DE07B6A002B24DA0B23FB1841
:102810001B78180001F02EFE04000A23FB181B7819
:102820001E007B681800FDF7F3FE05007B6A5BB2B3
:10283000180001F083F80300F9682D4AF868049342
:1028400003957B680293019600940B00022101F02E
:10285000CDFD7B6A45E00B23FB181B78180001F0C7
:1028600009FE04000A26BB191B781D007B681800AE
:10287000FDF7CEFE0300F9681E4AF86803937B68F3
:102880000293019500940B00052101F0AFFDBB19E7
:102890001B780C2B10D020DC082B09D01DDC002B62
:1028A00002D0042B0CD018E0FB687A681A6214E09E
:1028B000FB687A68DA6210E0FB687A689A630CE079
:1028C000FB68DB6A0122134003D0FB687A689A62D6
:1028D00002E0FB687A685A62C046FB6901E018238F
:1028E0005B421800BD460BB0F0BDC0462495000801
:1028F00088950008E895000890B589B002AFF860A7
:102900007A600B203B180A1C1A703B181B781800C1
:1029100001F0B0FD0400F9682B4AF8687B68019368
:1029200000940B00052101F061FDFB68DA6A7B6809
:102930005340F022134001D1002341E0FB68DB6AE1
:102940007B617B69F02293437B617B68F0221340BB
:102950007A6913437B617A690B23FB181978F8684D
:1029600013000822FFF750FE03003B613B69002B78
:1029700011DA3B695BB2180000F0E0FF0300F96870
:10298000124AF86801937B6800930B00032101F061
:102990002DFD3B6914E0FB687A69DA620B23FB18B2
:1029A0001B78180001F066FD0400F968084AF86811
:1029B0007B68019300940B00052101F017FD3B6932
:1029C0001800BD4607B090BD48960008A8960008BC
:1029D000F4960008F0B5C64600B592B006AFF860B0
:1029E000080011007B600B243B19021C1A700A2599
:1029F0007B190A1C1A703B191B78180001F03AFD6C
:102A000004007B191B781D00F968B54AF8687B68DB
:102A10000293019500940B00052101F0E7FCFB688F
:102A2000002B02D10A235B4253E17B68002B02D1C9
:102A300002235B424DE10B22BB181B78012B06D011
:102A4000BB181B78022B02D018235B4241E1002304
:102A5000BB620A23FB181B781A00FB6801211800CF
:102A6000FFF74AFF03007B627B6A002B01DA7B6A77
:102A70002FE11B217B1801221A701A203B1801221A
:102A80001A700A23FC183A187918F8681723FB18EB
:102A900000932300FDF7E6FD03007B627B6A002BB9
:102AA00001DA7B6A15E11723FB181A78FB6801210C
:102AB0001800FDF7E3FE03007B627B6A002B01DC5C
:102AC0007B6A06E17B6ABB620B217B181B78012BBA
:102AD00029D1FB68C5331A007B181978FB681800E8
:102AE000FDF7CBFF03007B627B6A002B01DC7B6A76
:102AF000EFE07B6ABB62FB68C8331A00FB68D13326
:102B00001C000B23FB181978F8682300FEF736F930
:102B100003007B627B6A002B01DC7B6AD9E07B6A65
:102B2000BB62BB6AD5E00B257B191B78022B00D05A
:102B3000CDE01923FA187B191978FB681800FDF706
:102B40009CFF03007B627B6A002B0FDB1823FC18C1
:102B50007A687B191978F8682300FEF70FF90300EB
:102B60007B627B6A002B4FDA7B6AB2E07B6A24339C
:102B70004AD10A23FB623CE002235B42FB611C2337
:102B8000FA18F86800230221FFF782F903007B623C
:102B90007B6A002B25DB1723FB181A78FB680121C1
:102BA0001800FDF76BFE03007B627B6A002B1ADBCB
:102BB0001923FA18FB6802211800FDF75EFF0300D5
:102BC0007B627B6A002B10DB1823FB187A68F8689D
:102BD0000221FEF7D3F803007B627B6A002B0CDA3C
:102BE00004E0C04602E0C04600E0C046FB6A013B8C
:102BF000FB62FB6A002BBFDC00E0C046FB6A002BD7
:102C000002D12B235B4264E07B68F8680C2202212E
:102C1000FFF768FB03007B627B6A002B26DA0B233D
:102C2000FB181B78180001F025FC05000A23FB188F
:102C30001B7898467B681C687B681B681800FDF74A
:102C4000E7FC06007B6A5BB2180000F077FE01002B
:102C5000FB68244AF8680491039602944146019166
:102C60000095022101F0C2FB7B6A32E002235B4245
:102C7000FB612023FB181C22BA18F8680221FFF719
:102C800007F903007B627B6A002B01DA7B6A20E094
:102C90000B23FB181B78180001F0ECFB05000A233E
:102CA000FB181B781E007B681C687B681B6818007B
:102CB000FDF7AEFC0100FB680B4AF8680391029433
:102CC00001960095052101F091FBBB6A01E01823F4
:102CD0005B421800BD460CB080BCB846F0BDC04693
:102CE0005C980008BC9800081C990008F0B591B0E9
:102CF00006AFF860080011007B600B243B19021C32
:102D00001A700A257B190A1C1A703B191B781800C7
:102D100001F0B0FB04007B191B781D00F968AE4A76
:102D2000F8687B680293019500940B00052101F07F
:102D30005DFBFB68002B02D10A235B4248E10B22BA
:102D4000BB181B78012B06D0BB181B78022B02D0B6
:102D500018235B423CE100233B620A23FB181B78EB
:102D60001A00FB6801211800FFF7C6FD03007B6213
:102D70007B6A002B01DA7B6A2AE113217B1801228E
:102D80001A7012203B1800221A700A23FC183A18F5
:102D90007918F8681023FB1800932300FDF762FCF4
:102DA00003007B627B6A002B01DA7B6A10E110234F
:102DB000FB181A78FB6801211800FDF75FFD03007E
:102DC0007B627B6A002B01DC7B6A01E17B6A3B62F0
:102DD000FB68E1331A007B6811001800FDF7AFFBB8
:102DE0000B217B181B78012B2AD1FB68D5331A00E5
:102DF0007B181978FB681800FDF73FFE03007B6223
:102E00007B6A002B01DC7B6AE2E07B6A3B62FB6849
:102E1000D8217A685A50FB68D8229A580B23FB189D
:102E20001978FB681800FDF748FF03007B627B6A96
:102E3000002B01DC7B6ACBE07B6A3B623B6AC7E02C
:102E40000B243B191B78022B00D0BFE01123FA188A
:102E50003B191978FB681800FDF70FFE03007B6231
:102E60007B6A002B12DB7A683B191978FB68180023
:102E7000FDF723FF03007B627B6A002B01DA7B6A8C
:102E8000A6E03A6A7B6AD3183B624CE07B6A243343
:102E900049D10A23FB613BE002235B427B6114239F
:102EA000FA18F86800230221FEF7F2FF03007B62A4
:102EB0007B6A002B24DB1023FB181A78FB680121A6
:102EC0001800FDF7DBFC03007B627B6A002B19DB3B
:102ED0001123FA18FB6802211800FDF7CEFD03004C
:102EE0007B627B6A002B0FDB7A68FB68022118008B
:102EF000FDF7E3FE03007B627B6A002B0CDA04E043
:102F0000C04602E0C04600E0C046FB69013BFB61F1
:102F1000FB69002BC0DC00E0C046FB69002B02D13E
:102F20002B235B4254E07B6A002B31DA0B23FB1826
:102F30001B78180001F09EFA04000A23FB181B7886
:102F40001E007B681800FDF763FB05007B6A5BB21F
:102F5000180000F0F3FC0300F968204AF8680493B5
:102F600003957B680293019600940B00022101F007
:102F70003DFA02235B427B611823FB181422BA1826
:102F8000F8680221FEF784FF03007B627B6A1FE082
:102F90000B23FB181B78180001F06CFA04000A23BD
:102FA000FB181B781D007B681800FDF731FB030040
:102FB000F9680B4AF86803937B68029301950094C3
:102FC0000B00052101F012FA3B6A01E018235B4275
:102FD0001800BD460BB0F0BD7C990008CC990008E4
:102FE0002C9A000880B588B002AF78600A00FB1CFC
:102FF0001A70FB1C1B78180001F03CFA01007B687A
:103000003B4A78680091052101F0F0F97B68002BBC
:1030100002D10A235B4266E000233B617B683D22CC
:103020009B5C002B0DD1FB1C1A787B6811001800EB
:1030300001F0A8FC03003B613B69002B01DA3B690E
:1030400051E02C4A78680C23FB18009301230221DD
:1030500001F098FF03003B613B69002B01DA3B69FB
:1030600041E000237B6127E023497A6913005B007C
:103070009B181B01CB1824331A68FB689A4218D19D
:103080001D497A6913005B009B181B01CB18243380
:1030900019687A6913005B009B181B01164A9B187C
:1030A0000433164A786800930B00042101F09EF95E
:1030B00005E07B6901337B617B69052BD4D97B6992
:1030C000062B02D12E235B420DE0FB1C1B7818005F
:1030D00001F0D0F901007B68094A78680091052168
:1030E00001F084F900231800BD4606B080BDC0463B
:1030F0008C9A000800ED00E03CBE0008D49A00085D
:103100001C9B000880B584B000AF78600A00FB1CEF
:103110001A707B68002B02D10A235B421DE0FB1C66
:103120001B78022B06D0FB1C1B78012B02D0182326
:103130005B4212E0FB1C1A787B6811001800FFF755
:1031400051FF0300FB60FB68002B01DAFB6804E021
:103150007B6868220121995400231800BD4604B001
:1031600080BD000080B588B002AF78600A00FB1C0B
:103170001A707B68002B02D10A235B4285E0FB1C9E
:103180001B78022B06D0FB1C1B78012B02D00523D9
:103190005B427AE07B6868229B5C002B0DD1FB1CB4
:1031A0001A787B6811001800FFF7ACFF03003B6141
:1031B0003B69002B01DA3B6967E0364AFB1C197852
:1031C00078680C23FB180093012301F0DBFE030059
:1031D0003B613B69002B01DA3B6956E00A237B61C6
:1031E00048E02D4BFB60FB6801221343FB60FB684A
:1031F00002221343FB60FB6808229343FB60254ACD
:10320000FB1C197878680C23FB180093012302F04B
:103210007DF803003B613B69002B01DA3B6934E038
:103220001C4AFB1C197878680C23FB1800930123B7
:1032300001F0A8FE03003B613B69002B01DA3B690A
:1032400023E0FA6880239B02134010D0FB68134AE6
:103250007868042101F0CAF8114A7B68012118003E
:1032600001F0C4F8FA687B68DA6600230DE07B6938
:10327000013B7B617B69002BB3D10A4A7B68022149
:10328000180001F0B3F82B235B421800BD4606B0CE
:1032900080BDC046F0ED00E000005FA0689B000824
:1032A000989B0008C89B000880B582B000AF78608A
:1032B0000A00FB1C1A707B68002B02D10A235B42B8
:1032C0000FE0FB1C1B78022B06D0FB1C1B78012B8C
:1032D00002D005235B4204E07B68DB6E5B140122B5
:1032E00013401800BD4602B080BD0000F0B58DB09F
:1032F00006AF786039607B68002B02D10A235B42FD
:10330000F9E23B68002B02D102235B42F3E2202367
:103310005B427B6107235B423B613B685B7A5BB24C
:1033200007330D2B00D96AE19A00CD4BD3181B68E7
:103330009F46CC4A7B680321180001F057F872E1E0
:103340003B681B7A082B02D021235B42D3E23B6807
:103350001A783968786800230093082300F030FE5B
:1033600003007B617B69002B00DA4BE13B681B7833
:1033700019007B68BC22995044E13B681B7A012B01
:1033800002D021235B42B6E23B681A78396878683C
:1033900000230093012300F013FE03007B617B698F
:1033A000002B00DA30E13B6819787B68C022995421
:1033B0002AE13B681B7A012B02D021235B429AE26F
:1033C0003B681A783968786800230093012300F07D
:1033D000F7FD03007B617B69002B00DA16E13B6897
:1033E00019787B68C122995410E13B681B7A002B45
:1033F00006D13B681B7A042B02D921235B427AE277
:103400003B681B7A1A007B681100180000F05EFF11
:1034100003007B6107E13B681B7A082B02D0212364
:103420005B4268E23B681A78396878680023009349
:10343000082300F0C5FD03007B617B69002B00DAE7
:10344000E6E03B6819787B68B42299543B681A78A7
:103450007B681100180001F029F80300824A78689F
:10346000052100F0C3FFD3E03B681B7A202B02D07C
:1034700021235B423FE23B681A6839687868002381
:103480000093202300F0FEFD03007B617B69002B8D
:1034900000DABFE03B681A687B68B8215A50B9E08F
:1034A0003B681B7A032B02D021235B4223E23A685C
:1034B0003B681B7A1C00396878680023009323005E
:1034C00000F040FE03007B617B69002B00DAA3E083
:1034D0003B6819787B68A52299543B685B68002B90
:1034E00000D199E03B685B683A6812781A7093E003
:1034F0003B681B7A012B02D021235B42FBE13A6837
:103500003968786800230093012300F01BFE030054
:103510007B617B69002B00DA80E03B6819787B686F
:10352000B02299543B685B68002B00D176E03B6881
:103530005B683A6812781A7070E03B681B7A012B5E
:1035400002D021235B42D6E13A68396878680023CB
:103550000093012300F0F6FD03007B617B69002BE3
:103560005EDB3B6819787B68B12299543B685B68E5
:10357000002B55D03B685B683A6812781A704FE0B0
:103580003B681B7A002B06D13B681B7A042B02D9BF
:1035900021235B42AFE13B681B7A1A007B68110074
:1035A000180000F0E7FE03007B613CE03B681B7AFB
:1035B000202B02D021235B429DE13A683B681B7AB5
:1035C0001C003968786800230093230000F01CFE7B
:1035D00003007B617B69002B24DB3B681A687B68F6
:1035E000A8215A503B685B68002B1BD03B685B6886
:1035F0003A6812681A6015E000237B6113E020230B
:103600005B4278E1C0460EE0C0460CE0C0460AE0EE
:10361000C04608E0C04606E0C04604E0C04602E0FE
:10362000C04600E0C0463B681B7A1E003B6818009D
:10363000FDF7E0FE05003B681B7A082B02D93B68CA
:103640001C6802E03B681B781C003B681B7A082B57
:103650000CD83B681B781800FCF7A0FF03000BE0B8
:103660005CBF0008609C0008A89C00083B681B68C1
:103670001800FCF7CDFF03007968A14A786805932C
:1036800004947B690393029501963B6800930B00B9
:10369000062100F0ABFE7B69002B01DA7B692AE191
:1036A0003B6801229A723B685B7A5BB2022B00D0C6
:1036B000B6E03B681B78042B07D020DC012B02D03E
:1036C000022B0FD01BE07B6915E179688D4A786881
:1036D0003B6800930B00032100F088FE25235B422A
:1036E0003B6118E07968884A78683B6800930B0072
:1036F000052100F07BFE24235B423B610BE07968EF
:10370000824A78683B6800930B00032100F06EFE4C
:1037100013235B423B617B685B7B002B58D179684C
:103720007B4A78683B6800930B00052100F05EFE41
:103730003B69243302D03B6925330CD13B681B69BC
:10374000002B08D03B681B691B69002B03D03B682A
:103750001B691B693B603B681800FEF734F8031EC9
:103760000BDA79686B4A78683B6800930B00032199
:1037700000F03CFE26235B42BDE03B69243302D0CF
:103780003B6925334AD17968634A78683B6800937E
:103790000B00052100F02AFE0023FB600B217B18A3
:1037A00000221A707B181B78FA6878680221FDF7EE
:1037B0001BFA03007B617B69002B2FDA7968574A7B
:1037C00078683B6800930B00032100F00FFE25E0B2
:1037D0007968534A78683B6800930B00052100F034
:1037E00005FE7B68180000F079F903007B617B69B6
:1037F000002B11DA7B695BB2180000F09FF8030020
:103800007968484A786801933B6800930B0002216D
:1038100000F0ECFD7B696EE000233B613B696AE0F0
:103820003B685B7A5BB2042B64D13B68DB68002B9E
:1038300002D132235B425EE03B68DB685B7A5BB2BD
:10384000062B4CD13B68DB681B680A22BA181100B2
:103850001800FCF774FE031E08DA7968324A7868AB
:103860003B6800930B00032100F0C0FD3B681A7811
:103870000A23FB181B789A423CD03B68DB681B6824
:103880001800FCF7C5FE04003B681B787968274ADE
:103890007868029301943B6800930B00032100F0C9
:1038A000A5FD7968224A78683B6800930B000321E4
:1038B00000F09CFD3B681800FDF785FF031E0BDA46
:1038C00079681C4A78683B6800930B00032100F07C
:1038D0008DFD26235B420EE00F235B420BE07968EF
:1038E000154A78683B6800930B00032100F07EFDC9
:1038F0007B6900E07B691800BD4607B0F0BDC0469B
:10390000C89C0008389D00088C9D0008E09D0008B8
:10391000509E0008C49E0008589F0008C09F0008E1
:103920004CA00008C8A000080CA1000878A100085D
:10393000D4A100084CA20008BCA2000880B582B047
:1039400000AF0200FB1D1A70FB1D1B785BB2303309
:10395000302B00D95EE09A00314BD3181B689F468C
:10396000304B58E0304B56E0304B54E0304B52E097
:10397000304B50E0304B4EE0304B4CE0304B4AE0A7
:10398000304B48E0304B46E0304B44E0304B42E0B7
:10399000304B40E0304B3EE0304B3CE0304B3AE0C7
:1039A000304B38E0304B36E0304B34E0304B32E0D7
:1039B000304B30E0304B2EE0304B2CE0304B2AE0E7
:1039C000304B28E0304B26E0304B24E0304B22E0F7
:1039D000304B20E0304B1EE0304B1CE0304B1AE007
:1039E000304B18E0304B16E0304B14E0304B12E017
:1039F000304B10E0304B0EE0304B0CE0304B0AE027
:103A0000304B08E0304B06E0304B04E0304B02E036
:103A1000304B00E0304B1800BD4602B080BDC046C0
:103A200094BF000820A3000844A300086CA300086A
:103A300094A30008B8A30008E0A3000804A40008A9
:103A40002CA4000850A4000874A40008A0A4000836
:103A5000C8A40008ECA4000814A500083CA50008B0
:103A600060A5000884A50008ACA50008E0A5000832
:103A700018A6000854A6000898A60008D4A60008B6
:103A800010A7000848A7000878A70008B8A70008F2
:103A9000ECA7000820A8000858A8000890A8000873
:103AA000C4A800080CA900083CA900086CA90008DB
:103AB000B0A90008E8A900081CAA00084CAA000840
:103AC0008CAA0008C4AA000800AB000830AB0008AC
:103AD00060AB000898AB0008DCAB000880B586B08E
:103AE00002AF78607B681B681800FDF749FD030092
:103AF000FB60FB68002B08D17B681C4A78680221B8
:103B000000F074FC0B235B422CE07B681B68FA68B6
:103B10009A4208D07B68164A7868042100F066FC57
:103B20007B68FA681A607B681B685B7A5BB2022B61
:103B30000AD17B68180000F01FF80300BB60C04684
:103B4000BB68002B0DDA02E02A235B420AE07B68A7
:103B50001B687968074A786800930B00032100F01E
:103B600045FCBB681800BD4604B080BDECAB000846
:103B70004CAC0008B8AC000880B582B000AF7860EB
:103B80007B68002B02D10A235B422CE07B681B6818
:103B90005B7A5BB2022B08D07B68154A78680221F9
:103BA00000F024FC2A235B421DE07B681B681B7825
:103BB000042B13D015DC012B02D0022B08D010E00F
:103BC0007B680C4A7868032100F010FC00230AE0AF
:103BD0007B68180000F010F8030004E02A235B4221
:103BE00001E02A235B421800BD4602B080BDC046FA
:103BF000F0AC000840AD0008F0B5CE4CA54402AFD3
:103C000078607B68002B02D10A235B42CEE17B689F
:103C10001B685B7A5BB2022B08D07B68C64A786867
:103C2000032100F0E3FB2A235B42BFE17B681B68B2
:103C30001B78022B08D07B68C04A7868032100F00B
:103C4000D5FB16235B42B1E17B681B68DB68002B68
:103C500035D07B681B68DB68DB68002B2FD07B6866
:103C60001B68DB68DA68B64BFB1812781A70B54B24
:103C7000FB1800221A707B681B689E229200BA18FB
:103C800013600023A124A4003A1913603223A02258
:103C90009200BA18136000239D229200BA18136094
:103CA0000C23FB181E211800FDF71AFC03003A191B
:103CB00013603B191B68002B00DA2DE102E0322370
:103CC0005B4273E17B680C22BA181A607B689E4ADB
:103CD0007868052100F08AFB00239D229200B91824
:103CE0000B60984BFB181B78BA1812687868022191
:103CF000FCF77AFF0300A1229200B9180B60BB18F1
:103D00001B68002B00DA09E13223A0229200BA18C6
:103D1000136083E09A25AD007B19786804220221A4
:103D2000FEF7E0FA0300A124A4003A1913603B193E
:103D30001B68002B00DAF3E014239C229200B918D0
:103D40000B60BB181B68786800220221FEF75CFC40
:103D500003003A1913603B191B68002B00DAE1E0FD
:103D6000774BFB181A787B6801211800FCF786FD59
:103D700003003A191360754EBA197B6802211800C6
:103D8000FCF77BFE03003A1913603B191B68002BFC
:103D900000DAC9E0BB191B78012B00D0C4E06C4BE2
:103DA000FB189926B600BA1978680221FCF7E6FFDD
:103DB00003003A1913603B191B68002B00DAB5E0C9
:103DC0007B19786804220221FEF78CFA03003A1965
:103DD00013603B191B68002B00DAA9E07B191B68F4
:103DE0004022134013D05B4A7B680521180000F085
:103DF000FDFABB1978680C220221FEF773FA030062
:103E00003A1913603B191B68002B0FDAA7E0A022B8
:103E10009200BB181B68013BBA181360A0239B00DB
:103E2000FB181B68002B00DD74E700E0C046A023F0
:103E30009B00FB181B68002B06D12B235B42A122A1
:103E40009200BA1813608AE07B689E229200BA182A
:103E500012681A60FDF790FC0300A1229200B918C5
:103E60000B60BB181B68002B00DA77E07B681B68CF
:103E70005B7A5BB2022B48D17B681B681B695B7A5B
:103E80005BB2062B41D17B681B681B691B695B7A9F
:103E90005BB2042B39D17B681B6801221A707B68E6
:103EA0001A687B681B685B6812781A707B681B68ED
:103EB0001A697B681A607B681B6899229200BA189D
:103EC00012681A607B681A687B681B685B681268F6
:103ED0001A607B681B6801229A727B681B681A69EA
:103EE0007B681A607B681B68194ABA1812781A70C6
:103EF0007B681A687B681B685B6812781A707B683D
:103F00001B6801229A72002350E0134A7B68022149
:103F1000180000F06BFA22E0C04620E0C0461EE028
:103F2000C0461CE0C0461AE0C04618E0C04616E095
:103F3000C04614E06CFDFFFF94AD0008F4AD00082E
:103F40007F0200007E02000060AE00086F020000E9
:103F50006E020000C8AE00080CAF0008C046A123E6
:103F60009B00FB181B68002B05DBA0239B00FB18A4
:103F70001B68002B0FD1A1239B00FB181B685BB2B1
:103F80001800FFF7DBFC01007B680B4A78680091A2
:103F9000022100F02BFA7B689E229200BA18126868
:103FA0001A60064B180004F0D1F8FAE71800BD4675
:103FB000A3239B009D44F0BD58AF00089CAF0008B0
:103FC00080B588B000AFF860B9603B60FB1D1A7027
:103FD0003B68002B05DA3B68082B02DD05235B42BA
:103FE00048E0BB6A002B05D0BB6A012B02D0052339
:103FF0005B423FE00123FB61FB1D1B78BB61BB6A99
:10400000002B05D03B68013B01229A401300FB6165
:1040100000237B6129E0BB69FA69134007D0174B85
:104020005A69164B8021C9000A435A6105E0134BB7
:104030005A69124B12490A405A61BB6A002B02D1DD
:10404000BB695B0801E0BB695B00BB610B4B5A6954
:104050000A4B01210A435A61084B5A69074B012157
:104060008A435A617B6901337B613B687A699A4272
:10407000D1D33B681800BD4608B080BD0004005095
:10408000FFFBFFFF80B588B000AFF860B9607A60D1
:104090003B603B68002B05DA3B68202B02DD0523E3
:1040A0005B4247E0BB6A002B05D0BB6A012B02D004
:1040B00005235B423EE00123FB617B68BB61BB6A79
:1040C000002B05D03B68013B01229A401300FB61A5
:1040D00000237B6129E0BB69FA69134007D0174BC5
:1040E0005A69164B8021C9000A435A6105E0134BF7
:1040F0005A69124B12490A405A61BB6A002B02D11D
:10410000BB695B0801E0BB695B00BB610B4B5A6993
:104110000A4B01210A435A61084B5A69074B012196
:104120008A435A617B6901337B613B687A699A42B1
:10413000D1D33B681800BD4608B080BD00040050D4
:10414000FFFBFFFF80B588B000AFF860B9607A6010
:104150003B607B68002B02D102235B424EE03B6850
:10416000002B05DA3B68082B02DD05235B4245E0A6
:10417000BB6A002B05D0BB6A012B02D005235B4232
:104180003CE00123FB610023BB61BB6A002B05D12E
:104190003B68013B01229A401300FB6100237B61D5
:1041A00023E0184B5A69174B01210A435A61BB6A35
:1041B000002B02D1BB695B0801E0BB695B00BB61FE
:1041C000104B5A690F4B01218A435A610D4B1A69F2
:1041D0008023DB00134001D0FB6900E00023BA69B3
:1041E0001343BB617B6901337B613B687A699A4207
:1041F000D7D3BB69DAB27B681A703B681800BD463A
:1042000008B080BD0004005080B588B000AFF860F1
:10421000B9607A603B607B68002B02D102235B426D
:104220004DE03B68002B05DA3B68202B02DD0523BF
:104230005B4244E0BB6A002B05D0BB6A012B02D075
:1042400005235B423BE00123FB610023BB61BB6AAA
:10425000002B05D13B68013B01229A401300FB6112
:1042600000237B6123E0184B5A69174B01210A4355
:104270005A61BB6A002B02D1BB695B0801E0BB69D4
:104280005B00BB61104B5A690F4B01218A435A6195
:104290000D4B1A698023DB00134001D0FB6900E05D
:1042A0000023BA691343BB617B6901337B613B68BF
:1042B0007A699A42D7D3BA697B681A603B6818005A
:1042C000BD4608B080BDC0460004005080B588B02F
:1042D00000AF786039603B68002B05DC3B68042B3D
:1042E00002DD22235B423FE0214B5A69204B012132
:1042F0000A435A6108217B188022D2001A607B1879
:1043000001225A607B180322DA607B18184A1900D0
:10431000100002F071F9164B5A69154B01218A43BE
:104320005A61134B5A69124B01210A435A61104BCF
:104330005A690F4B01218A435A610123FB610EE048
:104340000B4B5A690A4B01210A435A61084B5A69BF
:10435000074B01218A435A61FB690133FB613B68CA
:10436000FA699A42ECD33B681800BD4608B080BD9C
:104370000004005080B588B000AF786039603B68B9
:10438000002B05DC3B68042B02DD22235B4227E087
:1043900008217B188022D2001A607B1800225A6004
:1043A0007B180322DA607B180F4A1900100002F014
:1043B00023F90123FB610EE00B4B5A690A4B0121E3
:1043C0000A435A61084B5A69074B01218A435A61D3
:1043D000FB690133FB613B68FA699A42ECD33B68A5
:1043E0001800BD4608B080BD000400500CB490B564
:1043F00085B000AF78600A00FB1C1A702423FB18FC
:10440000BB60BC683A6AFB1C19787868230000F02E
:104410000AF80300FB60FB681800BD4605B090BCBD
:1044200008BC02B0184780B586B000AFF8607A606B
:104430003B600B203B180A1C1A703B181B78062B9C
:1044400002D929235B4211E0FB681B7B0B22BA18BF
:1044500012789A4201D9002308E03A687B6811007B
:10446000180003F009FF03007B617B691800BD465B
:1044700006B080BD80B582B000AF0200FB1D1A708F
:10448000FB1D1B78012B02D0022B02D003E0044B52
:1044900002E0044B00E0044B1800BD4602B080BDB2
:1044A000B4B00008D0B00008ECB0000880B586B009
:1044B00000AF78600A00FB1C1A70D94B00221A70FA
:1044C000FB1C1B78022213403B6100237B61FB1C19
:1044D0001B785B10082213407A6913437B61FB1C35
:1044E0001B785B10042213407A6913437B613B699C
:1044F000002B06D07B68DB6AF02213407A691343F5
:104500007B61FB1C1B7804221340FB60FB1C1B78A7
:1045100020221340BB603B69002B01D0C14B00E05F
:10452000C14BBF4A1900100003F098FEFB68002B36
:1045300001D0BE4B00E0BE4BB94A1900100003F099
:104540008DFEB74B1800FBF7DFFD03001A00B44BDC
:10455000D218B84B1000190006231A0003F0BCFC57
:104560007A69B549B54B180003F00CFEB34AAC4B61
:104570001100180003F072FE3B69002B00D1D4E05B
:104580007B68DB6AF02213407A6913437B617B69A5
:10459000FC2B00D1A9E07B69FC2B00DDB5E07B6939
:1045A0001C2B0DDC7B69002B00DAAEE07B691C2B39
:1045B00000D9AAE07B699A00A14BD3181B689F46DB
:1045C0007B69F82B00D180E09FE0954B1800FBF74A
:1045D0009BFD03001A00924BD2189A4B1000190051
:1045E0003B231A0003F078FC99E18D4B1800FBF790
:1045F0008BFD03001A008A4BD218934B1000190050
:1046000038231A0003F068FC89E1854B1800FBF79A
:104610007BFD03001A00824BD2188C4B100019004E
:1046200010231A0003F058FC79E17D4B1800FBF7CA
:104630006BFD03001A007A4BD218854B100019004D
:104640001D231A0003F048FC69E1754B1800FBF7C5
:104650005BFD03001A00724BD2187E4B100019004C
:104660001B231A0003F038FC59E16D4B1800FBF7CF
:104670004BFD03001A006A4BD218774B100019004B
:104680001B231A0003F028FC49E1654B1800FBF7D7
:104690003BFD03001A00624BD218704B100019004A
:1046A0001B231A0003F018FC39E15D4B1800FBF7DF
:1046B0002BFD03001A005A4BD218694B1000190049
:1046C0001B231A0003F008FC29E1554B1800FBF7E7
:1046D0001BFD03001A00524BD218624B1000190048
:1046E00031231A0003F0F8FB19E14D4B1800FBF7DA
:1046F0000BFD03001A004A4BD2185B4B1000190047
:104700003E231A0003F0E8FB09E1454B1800FBF7D4
:10471000FBFC03001A00424BD218544B1000190046
:104720000B231A0003F0D8FBF9E0FB68002B60D0E4
:104730007B690C2B3DD07B690C2B4ADC7B69082BF9
:1047400027D07B69082B44DC7B69002B03D07B6975
:10475000042B10D03DE0324B1800FBF7D5FC0300D2
:104760001A002F4BD218424B1000190009231A00CF
:1047700003F0B2FBD3E07B68DB6A0122134001D077
:104780003C4B00E03C4B264A1900100003F066FD4C
:10479000C5E0234B1800FBF7B7FC03001A00204BC1
:1047A000D218364B100019000A231A0003F094FBAC
:1047B000B5E01B4B1800FBF7A7FC03001A00184BD1
:1047C000D2182F4B100019000A231A0003F084FBA3
:1047D000A5E0134B1800FBF797FC03001A00104BE1
:1047E000D218224B100019000B231A0003F074FB9F
:1047F00095E07B690C2B00D172E07B690C2B00DD0E
:104800007EE07B69082B5BD07B69082B00DD77E0BD
:104810007B69002B36D07B69042B43D070E0C04607
:10482000D000002008B1000814B1000820B1000831
:1048300028B1000830B1000838B100083401002068
:1048400058C0000840B100087CB10008B4B10008AD
:10485000C4B10008E4B1000800B200081CB20008AE
:1048600038B2000854B2000888B20008C8B2000884
:10487000D4B20008E0B20008F8B2000810B3000893
:104880001CB30008354B1800FBF73EFC03001A0070
:10489000324BD218324B1000190009231A0003F0D2
:1048A0001BFB3CE07B68DB6A0122134001D02D4BEF
:1048B00000E02D4B294A1900100003F0CFFC2EE038
:1048C000264B1800FBF720FC03001A00234BD218DC
:1048D000264B100019000A231A0003F0FDFA1EE00F
:1048E0001E4B1800FBF710FC03001A001B4BD218DC
:1048F0001F4B100019000B231A0003F0EDFA0EE015
:10490000164B1800FBF700FC03001A00134BD218DB
:10491000184B100019000B231A0003F0DDFA0F4B9F
:104920001800FBF7F1FB03001A000C4BD218124BD6
:104930001000190008231A0003F0CEFABB68002B00
:1049400001D00E4B00E00E4B044A1900100003F09A
:1049500085FC024B1800BD4606B080BDD00000208B
:1049600028B3000834B300084CB3000864B300084F
:1049700070B30008C8B200087CB3000884B3000814
:1049800088B3000880B58AB002AF78600A00FB1CCB
:104990001A70FB1C1B781800FFF76CFD01007B6888
:1049A000574A786800910521FFF720FD7B68002BAE
:1049B00002D10A235B429EE00023FB617B681B7EE1
:1049C000002B0DD10823FA18FB1C19787B681800FE
:1049D000FDF750F80300FB61FB69002B00DA75E07E
:1049E0007B685B6E002B10D11423FA18FB1C19781E
:1049F00078681300FC22FDF7EDFF0300FB61FB6903
:104A0000002B65DB7A697B685A667B685B6E3D4A82
:104A100078680421FFF7EAFC7B681B6E002B10D13D
:104A20001023FA18FB1C197878681300F822FDF798
:104A3000D1FF0300FB61FB69002B4BDB3A697B680C
:104A40001A667B681B6E304A78680421FFF7CEFC3B
:104A50000023BB61BB69802212061343BB61BB69A3
:104A600030229343BB61BB6907229343BB61BB699F
:104A700002221343BB61BA69FB1C197878681300E2
:104A80000022FEF733F90300FB61FB69002B23DBF7
:104A90000C23FA18FB1C1978786813000022FDF724
:104AA00099FF0300FB61FB69002B17DBFA687B6849
:104AB0001A647B681B6C154A78680421FFF796FC22
:104AC0007B683D2201219954002314E0C04606E092
:104AD000C04604E0C04602E0C04600E0C046FB69B4
:104AE0005BB21800FEF72AFF0300094A786802212A
:104AF000FFF77CFCFB691800BD4608B080BDC046CE
:104B00008CB30008D4B3000808B400083CB4000813
:104B100070B4000890B58DB004AFF8607A603B6067
:104B20000B203B180A1C1A703B181B781800FFF763
:104B3000A1FC0400F968484AF8683B6802937B6866
:104B4000019300940B000521FFF750FCFB68002B3C
:104B500002D10A235B427AE0FB683D229B5C002B7A
:104B60000CD10B23FB181A78FB6811001800FFF713
:104B700009FF0300FB61FB69002B53DB7B6880228C
:104B800012061343BB61BB69FE22D2051343BB610E
:104B9000FB681B6CBA699A421ED0BA690B243B1998
:104BA0001978F86813000022FEF7A0F80300FB61F3
:104BB000FB69002B38DB1423FA183B191978F868C5
:104BC00013000022FDF706FF0300FB61FB69002BC9
:104BD0002CDB7A69FB681A64FB685B6C3A689A4262
:104BE0001ED03A680B243B191978F8681300042288
:104BF000FEF77CF80300FB61FB69002B18DB102338
:104C0000FA183B191978F86813000422FDF7E2FE40
:104C10000300FB61FB69002B0CDB3A69FB685A64FB
:104C2000002314E0C04606E0C04604E0C04602E0AF
:104C3000C04600E0C046FB695BB21800FEF77EFE8E
:104C40000300064AF8680221FFF7D0FBFB69180051
:104C5000BD4609B090BDC046B0B4000810B500080C
:104C600090B58FB004AFF8607A603B600B203B18C2
:104C70000A1C1A703B181B781800FFF7FBFB040096
:104C8000F968784AF868BB6B03933B6802937B68CA
:104C9000019300940B000521FFF7A8FBFB68002B94
:104CA00002D10A235B42D8E00B22BB181B78012BF0
:104CB00006D0BB181B78022B02D018235B42CCE035
:104CC000FB683D229B5C002B0DD10B23FB181A784F
:104CD000FB6811001800FFF755FE0300FB61FB693C
:104CE000002B00DAA4E0FB681B6C3022134047D194
:104CF00000237B6239E07B6A9B007A68D3183B62B1
:104D00003B689B00396A584AF86800930B000421FD
:104D1000FFF76CFB002002F095FF3B6AF868042265
:104D20000221FDF7E3FF0300FB61FB69002B00DAC2
:104D300080E0FB683A6A5A641023FB18F8680C227A
:104D40000221FDF747FE0300FB61FB69002B00DA3F
:104D500072E03A69FB689A647B6A9B00BA6BD3186D
:104D60003A691A607B6A01337B627A6A3B689A42CD
:104D7000C1DB3E4AFB6804211800FFF737FB55E012
:104D80008023DB007B617B683B620023BB6140E0EA
:104D90003A6A7B689A4206D03B6A79691800FBF749
:104DA0004BFA0B1E0DD13B6AF86804220221FDF775
:104DB0009DFF0300FB61FB69002B3FDBFB683A6A48
:104DC0005A643B689B00396A274AF86800930B00D5
:104DD0000421FFF70BFB002002F034FF1023FB1827
:104DE000F8680C220221FDF7F5FD0300FB61FB6969
:104DF000002B25DB3A69FB689A64BB699B00BA6BA0
:104E0000D3183A691A603B6A04333B62BB690133C9
:104E1000BB613B689A007B68D3183A6A9A42B7DB59
:104E2000124AFB6804211800FFF7E0FA002314E09F
:104E3000C04606E0C04604E0C04602E0C04600E0CE
:104E4000C046FB695BB21800FEF778FD0300084A14
:104E5000F8680221FFF7CAFAFB691800BD460BB0DB
:104E600090BDC0465CB70008CCB7000808B6000883
:104E700018B80008B0B58CB006AFF8607A603B6037
:104E80000B203B180A1C1A703B181B781800FFF700
:104E9000F1FA0400F968394AF868FB6A0493BB6ABE
:104EA00003933B6802937B68019300940B000521F8
:104EB000FFF79CFAFB68002B02D10A235B4259E002
:104EC0000B22BB181B78012B06D0BB181B78022BBA
:104ED00002D018235B424DE000237B61FB6A07226E
:104EE0001340022B03D92F235B427B6136E0C0467F
:104EF000FB683D229B5C002B0CD10B23FB181A781E
:104F0000FB6811001800FFF73DFD03007B617B6922
:104F1000002B1EDB7C68FA6A0B257B191978F86870
:104F20002300FFF7F7FD03007B617B69002B12DB99
:104F30003C687A687B191978F868BB6A009323008B
:104F4000FFF78EFE03007B617B69002B05DB0023EE
:104F500010E0C04602E0C04600E0C0467B695BB29C
:104F60001800FEF7EBFC0300054AF8680221FFF782
:104F70003DFA7B691800BD4606B0B0BD40B80008D8
:104F8000C0B80008B0B588B004AFF8607A603B6084
:104F90000B257B190A1C1A707B191B781800FFF768
:104FA00069FA0400F9680F4AF8683B6A03933B68A2
:104FB00002937B68019300940B000521FFF716FA1A
:104FC0003C687A687B191978F868122301933B6A68
:104FD00000932300FFF74EFF03001800BD4604B006
:104FE000B0BDC046ECB8000890B58FB004AFF86013
:104FF0007A603B600B203B180A1C1A703B181B7828
:105000001800FFF737FA0400F968784AF868BB6BB4
:1050100003933B6802937B68019300940B00052186
:10502000FFF7E4F9FB68002B02D10A235B42D9E0C9
:105030000B22BB181B78012B06D0BB181B78022B48
:1050400002D018235B42CDE00023FB61FB683D22C8
:105050009B5C002B0DD10B23FB181A78FB68110009
:105060001800FFF78FFC0300FB61FB69002B00DADF
:10507000A3E0FB681B6C3022134048D100237B6205
:105080003AE07B6A9B007A68D3183B623B689B00DE
:10509000396A574AF86800930B000421FFF7A6F914
:1050A000002002F0CFFD3B6AF86804220221FDF7E0
:1050B0001DFE0300FB61FB69002B00DA7FE0FB684B
:1050C0003A6A5A647B6A9B00BA6BD3181B68F8680B
:1050D0000C220221FDF70AFE0300FB61FB69002B95
:1050E00000DA6EE07B6A9B00BA6BD3181A68FB6823
:1050F0009A647B6A01337B627A6A3B689A42C0DBBE
:105100003C4AFB6804211800FFF770F953E0802344
:10511000DB007B617B683B620023BB613EE03A6A57
:105120007B689A4206D03B6A79691800FBF784F8DD
:105130000B1E0DD13B6AF86804220221FDF7D6FD53
:105140000300FB61FB69002B3DDBFB683A6A5A6494
:105150003B689B00396A264AF86800930B000421DB
:10516000FFF744F9002002F06DFDBB699B00BA6BAC
:10517000D3181A68FB689A64FB689B6CF8680C2269
:105180000221FDF7B3FD0300FB61FB69002B1CDB73
:105190003B6A04333B62BB690133BB613B689A00E5
:1051A0007B68D3183A6A9A42B9DB124AFB68042139
:1051B0001800FFF71BF9002314E0C04606E0C046C4
:1051C00004E0C04602E0C04600E0C046FB695BB2B6
:1051D0001800FEF7B3FB0300074AF8680221FFF747
:1051E00005F9FB691800BD460BB090BD74BB000803
:1051F000E8BB000808B6000834BC0008B0B58CB0A5
:1052000006AFF8607A603B600B203B180A1C1A70EE
:105210003B181B781800FFF72DF90400F968394A8C
:10522000F868FB6A0493BB6A03933B6802937B684C
:10523000019300940B000521FFF7D8F8FB68002BC1
:1052400002D10A235B4259E00B22BB181B78012BC9
:1052500006D0BB181B78022B02D018235B424DE00E
:1052600000237B61FB6A07221340022B03D92F2303
:105270005B427B6136E0C046FB683D229B5C002BB5
:105280000CD10B23FB181A78FB6811001800FFF7EC
:1052900079FB03007B617B69002B1EDB7C68FA6A6B
:1052A0000B257B191978F8682300FFF733FC0300FE
:1052B0007B617B69002B12DB3C687A687B1919786B
:1052C000F868BB6A00932300FFF78EFE03007B6142
:1052D0007B69002B05DB002310E0C04602E0C046DE
:1052E00000E0C0467B695BB21800FEF727FB0300B5
:1052F000054AF8680221FFF779F87B691800BD4676
:1053000006B0B0BD60BC0008E0BC0008B0B588B015
:1053100004AFF8607A603B600B257B190A1C1A7099
:105320007B191B781800FFF7A5F80400F9680F4AED
:10533000F8683B6A03933B6802937B68019300948F
:105340000B000521FFF752F83C687A687B19197841
:10535000F868122301933B6A00932300FFF74EFF86
:1053600003001800BD4604B0B0BDC04610BD000823
:10537000B0B588B004AFF8607A603B600B257B194C
:105380000A1C1A707B191B781800FFF773F80400C9
:105390003B68F9680C4AF86802937B6801930094B3
:1053A0000B000521FFF722F87A687B191978F86855
:1053B000122301933B0000930123FFF71FFF03001B
:1053C0001800BD4604B0B0BD84BD000880B582B0F1
:1053D00000AF0200BB1D1A80084B1B6800225A62F6
:1053E000C046064B1B685A6ABB1D1B889A42F8D3FD
:1053F000C046C046BD4602B080BDC046A0030020E6
:1054000080B586B000AF00F0A9FF00F03DF800F0D5
:10541000E5F800F08FF8194BDA6A184B02210A43BD
:10542000DA62164BDB6A022213403B603B683B1D8D
:1054300001221A603B1D01225A603B1D0322DA60E3
:105440003B1D0F4A1900100001F0D6F83B1D8022C9
:10545000D2001A603B1D00225A603B1D0322DA6015
:105460003B1D074A1900100001F0C6F8054B180053
:1054700002F0A2F800F034FDFEE7C0460010024042
:1054800000040050A003002090B595B000AF182490
:105490003B19180038231A00002102F026FD3B1D9D
:1054A000180014231A00002102F01FFD1F4B1B6877
:1054B0001F4A1A401D4B802109010A431A6021002E
:1054C0007B1810221A607B180122DA617B180022F7
:1054D0001A627B18A02212025A627B1800229A627A
:1054E0007B18180001F066FA031E01D000F0E2F804
:1054F0003B1D0F221A603B1D00225A603B1D0022FB
:105500009A603B1DA022D200DA603B1D00221A6186
:105510003B1D0021180001F021FE031E01D000F008
:10552000C9F8C046BD4615B090BDC04600700040E9
:10553000FFE7FFFF80B586B000AF0823FB18180017
:1055400010231A00002102F0D0FC3B0018000823B1
:105550001A00002102F0C9FC1E4B8022D2051A60FD
:105560001C4B00225A601B4B00229A60194B1A4AAE
:10557000DA60184B00221A61164B00225A61154B53
:10558000180001F0D9FF031E01D000F093F80821A4
:105590007B18802252011A607A180E4B11001800F5
:1055A00002F054F8031E01D000F084F83B00002202
:1055B0001A603B0000225A603A00064B11001800A6
:1055C00002F006FA031E01D000F074F8C046BD4692
:1055D00006B080BDA0030020FFFF000090B589B099
:1055E00000AF0C243B19180014231A00002102F00C
:1055F0007CFC2D4BDA6A2C4B04210A43DA622A4BDD
:10560000DB6A04221340BB60BB68274BDA6A264B77
:1056100080210A43DA62244BDB6A802213407B60DC
:105620007B68214BDA6A204B01210A43DA621E4B68
:10563000DB6A012213403B603B68A023DB050022AC
:105640002021180001F073F93B19802292011A60A1
:105650003B19164A5A603B1900229A603B19144ABA
:105660001900100000F0C8FF21007B1820221A60EA
:105670007B1801225A607B1800229A607B18002256
:10568000DA607A18A023DB051100180000F0B4FFDF
:1056900000220021072000F07DFF072000F08FFF8F
:1056A000C046BD4609B090BD001002400000111078
:1056B0000008005080B500AF72B6C046FEE780B566
:1056C00088B002AFF860B9607A60BA68F8681023F1
:1056D000FB18009301230221FFF754FC03007B61B8
:1056E0007B69002B01DA7B690DE03A697B68134323
:1056F0003B61BA68F8681023FB180093012302216C
:10570000FFF704FE03001800BD4606B080BD80B55B
:1057100088B002AFF860B9607A60BA68F8681023A0
:10572000FB18009301230221FFF72CFC03007B618F
:105730007B69002B01DA7B690EE07B68DB433A6909
:1057400013403B61BA68F8681023FB1800930123EB
:105750000221FFF7DBFD03001800BD4606B080BD47
:1057600080B588B002AF78600A237B611DE0134AE0
:1057700078680C23FB18009301230221FFF702FC39
:1057800003003B613B69002B01DA3B6912E0FB68D7
:105790000122134001D100230CE0FA239B001800E2
:1057A000FFF714FE7B69013B7B617B69002BDED137
:1057B0002B235B421800BD4606B080BD1820024076
:1057C00080B588B002AFF860B9607A60BA68F868EE
:1057D0003B1D009301230221FFF798FD03007B612D
:1057E0007B69002B01DA7B692CE0FB681800FFF76E
:1057F000B7FF03007B617B69002B01DA7B6921E045
:10580000124AF8681023FB18009301230221FFF7C6
:10581000B9FB03007B617B69002B01DA7B6911E036
:105820003B69022213400BD002237B60074AF868D1
:105830003B1D009301230221FFF768FD030001E0F7
:1058400066235B421800BD4606B080BD18200240AA
:1058500080B586B000AFF860B960BB1D1A80BB1D73
:105860001B88DB431A04BB1D1B8813437B617A69C9
:10587000B968FB681800FFF7A3FF03001800BD46D6
:1058800006B080BD80B584B000AF786039608023F9
:105890009A0012497B681800FFF711FF0300FB60B4
:1058A000FB68002B01DAFB6814E00D4A0D497B68A8
:1058B0001800FFF785FF0300FB60FB68002B01DA8F
:1058C000FB6807E080239A0004497B681800FFF713
:1058D0001EFF03001800BD4604B080BD0420024036
:1058E0000000FFFF0000F81F80B586B002AF7860AF
:1058F0007B681800FFF734FF0300FB60FB68002B98
:1059000001DAFB6829E0174A78680823FB1800933E
:1059100001230221FFF736FB0300FB60FB68002B2D
:1059200001DAFB6819E0BB680122134014D00E4B6A
:105930000E4A78680221FFF71BFD0300FB60FB683D
:10594000002B01DAFB6808E0094B084A786802215D
:10595000FFF70EFD030000E000231800BD4604B071
:1059600080BDC04604200240EFCDAB890C20024030
:105970000504030280B586B002AF78607B6818002A
:10598000FFF7EEFE0300FB60FB68002B01DAFB680B
:105990004CE0284A78680823FB1800930123022171
:1059A000FFF7F0FA0300FB60FB68002B01DAFB68ED
:1059B0003CE0BB680122134036D1BB68042213408F
:1059C00030D01D4B1D4A78680221FFF7D1FC03003F
:1059D000FB60FB68002B01DAFB6827E0184B174AD5
:1059E00078680221FFF7C4FC0300FB60FB68002B12
:1059F00001DAFB681AE00F4A78680823FB18009365
:105A000001230221FFF7BEFA0300FB60FB68002BB5
:105A100001DAFB680AE0BB680422134002D06D2360
:105A20005B4203E0002301E069235B421800BD46AE
:105A300004B080BD04200240C8D9EAFB1420024013
:105A40002726252480B586B002AF78607B681800D1
:105A5000FFF786FE0300FB60FB68002B01DAFB68A2
:105A60004CE0284A78680823FB18009301230221A0
:105A7000FFF788FA0300FB60FB68002B01DAFB6884
:105A80003CE0BB680122134036D1BB6802221340C0
:105A900030D01D4B1D4A78680221FFF769FC0300D6
:105AA000FB60FB68002B01DAFB6827E0184B174A04
:105AB00078680221FFF75CFC0300FB60FB68002BA9
:105AC00001DAFB681AE00F4A78680823FB18009394
:105AD00001230221FFF756FA0300FB60FB68002B4D
